{
  "_format": "hh-sol-artifact-1",
  "contractName": "DocumentRegistry",
  "sourceName": "contracts/DocumentRegistry.sol",
  "abi": [
    {
      "inputs": [],
      "name": "ECDSAInvalidSignature",
      "type": "error"
    },
    {
      "inputs": [
        {
          "internalType": "uint256",
          "name": "length",
          "type": "uint256"
        }
      ],
      "name": "ECDSAInvalidSignatureLength",
      "type": "error"
    },
    {
      "inputs": [
        {
          "internalType": "bytes32",
          "name": "s",
          "type": "bytes32"
        }
      ],
      "name": "ECDSAInvalidSignatureS",
      "type": "error"
    },
    {
      "anonymous": false,
      "inputs": [
        {
          "indexed": true,
          "internalType": "bytes32",
          "name": "hash",
          "type": "bytes32"
        },
        {
          "indexed": true,
          "internalType": "address",
          "name": "signer",
          "type": "address"
        },
        {
          "indexed": false,
          "internalType": "uint256",
          "name": "timestamp",
          "type": "uint256"
        },
        {
          "indexed": false,
          "internalType": "bytes",
          "name": "signature",
          "type": "bytes"
        }
      ],
      "name": "DocumentStored",
      "type": "event"
    },
    {
      "anonymous": false,
      "inputs": [
        {
          "indexed": true,
          "internalType": "bytes32",
          "name": "hash",
          "type": "bytes32"
        },
        {
          "indexed": true,
          "internalType": "address",
          "name": "signer",
          "type": "address"
        },
        {
          "indexed": false,
          "internalType": "bool",
          "name": "isValid",
          "type": "bool"
        }
      ],
      "name": "DocumentVerified",
      "type": "event"
    },
    {
      "inputs": [
        {
          "internalType": "bytes32",
          "name": "hash",
          "type": "bytes32"
        }
      ],
      "name": "getDocumentInfo",
      "outputs": [
        {
          "internalType": "bytes32",
          "name": "",
          "type": "bytes32"
        },
        {
          "internalType": "uint256",
          "name": "",
          "type": "uint256"
        },
        {
          "internalType": "address",
          "name": "",
          "type": "address"
        },
        {
          "internalType": "bytes",
          "name": "",
          "type": "bytes"
        },
        {
          "internalType": "bool",
          "name": "",
          "type": "bool"
        }
      ],
      "stateMutability": "view",
      "type": "function"
    },
    {
      "inputs": [
        {
          "internalType": "bytes32",
          "name": "hash",
          "type": "bytes32"
        }
      ],
      "name": "getDocumentSignature",
      "outputs": [
        {
          "internalType": "bytes",
          "name": "",
          "type": "bytes"
        }
      ],
      "stateMutability": "view",
      "type": "function"
    },
    {
      "inputs": [
        {
          "internalType": "bytes32",
          "name": "hash",
          "type": "bytes32"
        }
      ],
      "name": "isDocumentStored",
      "outputs": [
        {
          "internalType": "bool",
          "name": "",
          "type": "bool"
        }
      ],
      "stateMutability": "view",
      "type": "function"
    },
    {
      "inputs": [
        {
          "internalType": "bytes32",
          "name": "hash",
          "type": "bytes32"
        },
        {
          "internalType": "uint256",
          "name": "timestamp",
          "type": "uint256"
        },
        {
          "internalType": "bytes",
          "name": "signature",
          "type": "bytes"
        }
      ],
      "name": "storeDocumentHash",
      "outputs": [],
      "stateMutability": "nonpayable",
      "type": "function"
    },
    {
      "inputs": [
        {
          "internalType": "bytes32",
          "name": "hash",
          "type": "bytes32"
        },
        {
          "internalType": "address",
          "name": "signer",
          "type": "address"
        },
        {
          "internalType": "bytes",
          "name": "signature",
          "type": "bytes"
        }
      ],
      "name": "verifyDocument",
      "outputs": [
        {
          "internalType": "bool",
          "name": "",
          "type": "bool"
        }
      ],
      "stateMutability": "pure",
      "type": "function"
    }
  ],
  "bytecode": "0x608060405234801561001057600080fd5b50610a71806100206000396000f3fe608060405234801561001057600080fd5b50600436106100575760003560e01c8063090b0a301461005c57806346fad89914610089578063bc6fda25146100bf578063dd4ad4b6146100d4578063f623a2c6146100e7575b600080fd5b61006f61006a3660046106bd565b610107565b60405161008095949392919061071c565b60405180910390f35b6100af6100973660046106bd565b60009081526020819052604090206004015460ff1690565b6040519015158152602001610080565b6100d26100cd366004610800565b61021e565b005b6100af6100e2366004610850565b610360565b6100fa6100f53660046106bd565b6103b5565b604051610080919061089f565b600081815260208181526040808320815160a0810183528154815260018201549381019390935260028101546001600160a01b0316918301919091526003810180548493849360609385938493929183870191610163906108b9565b80601f016020809104026020016040519081016040528092919081815260200182805461018f906108b9565b80156101dc5780601f106101b1576101008083540402835291602001916101dc565b820191906000526020600020905b8154815290600101906020018083116101bf57829003601f168201915b50505091835250506004919091015460ff16151560209182015281519082015160408301516060840151608090940151929b919a509850919650945092505050565b60008381526020819052604090206004015460ff16156102855760405162461bcd60e51b815260206004820152601760248201527f446f63756d656e7420616c72656164792065786973747300000000000000000060448201526064015b60405180910390fd5b6040805160a0810182528481526020808201858152338385019081526060840186815260016080860181905260008a815294859052959093208451815591519482019490945592516002840180546001600160a01b0319166001600160a01b039092169190911790555190919060038201906103019082610944565b50608091909101516004909101805460ff1916911515919091179055604051339084907f616d48255f5e6595f6eb84a59b68ea97cd2a73a81be03c417a30693f73d6eeac906103539086908690610a04565b60405180910390a3505050565b7f19457468657265756d205369676e6564204d6573736167653a0a3332000000006000908152601c849052603c8120600061039b82856104ba565b6001600160a01b0390811690861614925050509392505050565b60008181526020819052604090206004015460609060ff166104195760405162461bcd60e51b815260206004820152601760248201527f446f63756d656e7420646f6573206e6f74206578697374000000000000000000604482015260640161027c565b60008281526020819052604090206003018054610435906108b9565b80601f0160208091040260200160405190810160405280929190818152602001828054610461906108b9565b80156104ae5780601f10610483576101008083540402835291602001916104ae565b820191906000526020600020905b81548152906001019060200180831161049157829003601f168201915b50505050509050919050565b6000806000806104ca86866104e4565b9250925092506104da8282610531565b5090949350505050565b6000806000835160410361051e5760208401516040850151606086015160001a610510888285856105ee565b95509550955050505061052a565b50508151600091506002905b9250925092565b600082600381111561054557610545610a25565b0361054e575050565b600182600381111561056257610562610a25565b036105805760405163f645eedf60e01b815260040160405180910390fd5b600282600381111561059457610594610a25565b036105b55760405163fce698f760e01b81526004810182905260240161027c565b60038260038111156105c9576105c9610a25565b036105ea576040516335e2f38360e21b81526004810182905260240161027c565b5050565b600080807f7fffffffffffffffffffffffffffffff5d576e7357a4501ddfe92f46681b20a084111561062957506000915060039050826106b3565b604080516000808252602082018084528a905260ff891692820192909252606081018790526080810186905260019060a0016020604051602081039080840390855afa15801561067d573d6000803e3d6000fd5b5050604051601f1901519150506001600160a01b0381166106a9575060009250600191508290506106b3565b9250600091508190505b9450945094915050565b6000602082840312156106cf57600080fd5b5035919050565b6000815180845260005b818110156106fc576020818501810151868301820152016106e0565b506000602082860101526020601f19601f83011685010191505092915050565b85815284602082015260018060a01b038416604082015260a06060820152600061074960a08301856106d6565b905082151560808301529695505050505050565b634e487b7160e01b600052604160045260246000fd5b600082601f83011261078457600080fd5b813567ffffffffffffffff8082111561079f5761079f61075d565b604051601f8301601f19908116603f011681019082821181831017156107c7576107c761075d565b816040528381528660208588010111156107e057600080fd5b836020870160208301376000602085830101528094505050505092915050565b60008060006060848603121561081557600080fd5b8335925060208401359150604084013567ffffffffffffffff81111561083a57600080fd5b61084686828701610773565b9150509250925092565b60008060006060848603121561086557600080fd5b8335925060208401356001600160a01b038116811461088357600080fd5b9150604084013567ffffffffffffffff81111561083a57600080fd5b6020815260006108b260208301846106d6565b9392505050565b600181811c908216806108cd57607f821691505b6020821081036108ed57634e487b7160e01b600052602260045260246000fd5b50919050565b601f82111561093f576000816000526020600020601f850160051c8101602086101561091c5750805b601f850160051c820191505b8181101561093b57828155600101610928565b5050505b505050565b815167ffffffffffffffff81111561095e5761095e61075d565b6109728161096c84546108b9565b846108f3565b602080601f8311600181146109a7576000841561098f5750858301515b600019600386901b1c1916600185901b17855561093b565b600085815260208120601f198616915b828110156109d6578886015182559484019460019091019084016109b7565b50858210156109f45787850151600019600388901b60f8161c191681555b5050505050600190811b01905550565b828152604060208201526000610a1d60408301846106d6565b949350505050565b634e487b7160e01b600052602160045260246000fdfea26469706673582212202c1d80a4396e70dac2ba22ccf5450ac00cdcb311272feda85587e67bfa752edd64736f6c63430008180033",
  "linkReferences": {},
  "deployedLinkReferences": {}
}